:05000300120A4A80FE14
:040A85007F327E003E
:0B0A8900EF1FAC0670011E4C70F6223F
:0208CD00AD0775
:1008CF00E4FBEBC39408748094805012C294ED1330
:1008DF009294120A85D294EDC313FD0B80E47F32FC
:0508EF007E00020A89F1
:10096500E4FBEBC39408748094805014C294EDC3E7
:1009750013FDD294309403430580120A850B80E25F
:02098500AF05BC
:01098700224D
:1008F400C200D2947F787E00120A89C2947F207E3F
:1009040003120A89D2947F647E00120A89A2949207
:0609140000120A85A2009A
:01091A0022BA
:1009C500E4FEEEC3940874809480500FC297EF1331
:0B09D50092A3EFC313FFD2970E80E740
:0109E00022F4
:100A5F00C29300C29700D293001209C5AF051209C5
:040A6F00C5C2932247
:10078A00E4FDC29300C29700D293001209C5E4FFA8
:10079A00EFC39408748094805011C297EDC313FD7F
:1007AA0030A303430580D2970F80E5C29300C29716
:0C07BA0000D29700C2A300D2A300AF053C
:0107C6002210
:040AA300D2A07F0559
:080AA70000AE071FEE70F922FA
:0F0A9400D2A3120AA3C2A37F05120AA7C2A022EF
:0C0AAF00C2A3120AA3D2A37F05020AA76B
:02083B00AD0707
:10083D00E4FCECC39408748094805024C2A07F051E
:10084D00120AA7ED30E704D2A38002C2A37F0512DE
:10085D000AA7D2A0ED25E0FD7F05120AA70C80D2D4
:02086D00C2A027
:01086F002266
:10091B00E4FCECC39408748094805017120AA3ED86
:10092B0025E0FD30A303430501C2A07F05120AA7F2
:05093B000C80DFAF0598
:010940002294
:100A7300120AA3A2A3E433FDC2A07F05120AA7AF03
:010A8300056D
:010A8400224F
:100A3200C2A0EF24FF92A37F05120AA7120AA3C243
:080A4200A0D2A37F05020AA760
:10041E00C2AF1208F4D2AF7FCC1208CD7F441208BF
:10042E00CD7F107E27120A89C2AF1208F4D2AF7F99
:10043E00CC1208CD7FBE1208CD1209658F1F12098E
:10044E00657530008F31E531F530E51FF531E5305A
:10045E0054F87055E530C4F854F0C868F530E531FD
:10046E00C4540F48F531AE30FF7C007D0A1202CB2A
:10047E008E308F31E51F540FFCE4120216E4FBFAA6
:10048E007920783F120106C004C005C006C007AC33
:10049E0030AD31E4120211D003D002D001D00012DF
:0904AE00001512024A8E308F3154
:0104B7002222
:100A4A005389F0438901758A18758CFCC28DD2AF1F
:050A5A00D2A9D28C229C
:03000B0002068C5E
:10068C00C0E0C0F0C083C082C0D075D000C000C034
:10069C0001C002C003C004C005C006C007758A189B
:1006AC00758CFC1205ACD007D006D005D004D00355
:1006BC00D002D001D000D0D0D082D083D0F0D0E006
:0106CC0032FB
:10080200EF603224FB601314601914601F2403701C
:1008120027E5A0541F4480F5A022E5A0541F44A060
:10082200F5A022E5A0541F44C0F5A022E5A0541F64
:0908320044E0F5A02253A01F22AE
:100988008C328D33AE077580FF7F061208028E8089
:100998007F017E00120A897F0712080285338022B0
:1009FD00C0F9A4B0999282F880908883C6A1868EA2
:0B0A0D00BF7FFF0102040810204080A2
:0308A10001251717
:100544000521E52164057003752101E52124FE6080
:100554001C14602914602E2403703A752605AE30ED
:10056400AF317C007D641202DD8F2780287526065A
:10057400AE30AF317C007D0A1202DD800F75260695
:100584007527118010752607AE30AF317C007D0AC7
:100594001202DD8D27E526900A1093FFE5279009C6
:0805A400FD93FD7C00020988B3
:10034000E50CC4540F75F00AA4FFAEF0E50C540F91
:100350007C002FF529EC3EF528E50BC4540F75F011
:100360000AA4FFAEF0E50B540F2FF52BEC3EF52A57
:10037000E50AC4540F75F00AA4FFE50A540F2FFFD5
:10038000EC35F0FE0522E52264097003752201E5D3
:100390002214B4080050749003A575F003A4C5831B
:1003A00025F0C583730203BD0203C70203D0020315
:1003B000D50203E00203E90203F10203FFE4F5269C
:1003C000AE28AF29FC802F752601AE28AF298032D8
:1003D0007526028017752603AE2AAF2B7C00801687
:1003E000752604AE2AAF2B80197526057527108057
:1003F0001A7526067C007D0A1202DD8F27800C7597
:1004000026077C007D0A1202DD8D27E526900A1062
:0E04100093FFE5279009FD93FD7C000209880B
:1006CD000523E52364037003752301E52324FE60F0
:1006DD0010047019752606E52575F00A84F5278036
:1006ED000C752607E52575F00A8485F027E526901B
:1006FD000A1093FFE5279009FD93FD7C0002098800
:1005AC001206020524E52464057003752401E52474
:1005BC0024FE601114601414602124037025752628
:1005CC0004EEC4801A752605EE8014752606EEC45A
:1005DC00F854F0C8EFC4540F488004752607EF5444
:1005EC000FF527E526900A1093FFE5279009FD9358
:0605FC00FD7C00020988ED
:1008A400071880828486888A8C07118183858789CA
:0B08B4008B8D070A29011501010122AC
:10087000E4FD7F8E120A5FE4F508C3E5089407746F
:10088000809480501574182508F8E6FF740A25082E
:10089000F8E6FD120A5F050880E07D807F8E020A7F
:0108A0005FF8
:10094100E4F509C3E5099407748094805015741186
:100951002509F8E6FF12078A740A2509F8A6070592
:030961000980E02A
:010964002270
:10074C00EF24FE601414601B1460222403702EC26C
:10075C00B0D2B3D2B2D2B1801CC2B1D2B3D2B2D267
:10076C00B08012C2B2D2B3D2B1D2B08008C2B3D26E
:0E077C00B2D2B1D2B0D2B4D2B5D2C2D2C4225F
:0308BF0001340100
:080ABB007F3B7E5ADEFEDFFCEA
:010AC3002210
:1009E100E53464017003020544E5346402700302D6
:0C09F1000340E534640370031206CD22BD
:1009A8007F0112074C20B414120ABB20B40B053483
:0D09B800E5346404700375340130B4FD2291
:100649007F0312074C20B40B120ABB20B402052504
:1006590030B4FD7F0412074C20B40B120ABB20B43E
:1006690002152530B4FDC3E5259463748094804058
:1006790003752563D3E52594097480948050037527
:030689002509221E
:0A08C200022E00FF012C00012D00A2
:10070D00ED701AEF14FF7E007401A807088005C371
:10071D0033CE33CED8F9422FEE422E801EEF14FF8A
:10072D007E007401A807088005C333CE33CED8F9F7
:0F073D00F4FFEEF4FEEF522FEE522E852F8022A6
:1007C7007F04120802E52575F00AA4FFD3E5319FDF
:1007D700E53095F04019052CE52C64647018F52C6C
:1007E700632DFFE52D6004E4FD80067D018002E4B2
:0B07F700FD7F0112070DE4FF02080265
:100A18007F05120802E52564147006D284D2868008
:0A0A280004C284C286E4FF02080243
:10060200120A947F9012083B120A737F0412083B6D
:10061200120A73120A947F9112083B120A7312098A
:100622001B8F32E4FF120A3212091BE4FF120A3254
:1006320012091B8F33E4FF120A3212091B120AAF8E
:06064200E532FEE533FF86
:01064800228F
:10000E000202B6E86480F8E933E83360110460F068
:10001E00ED33EC337009E8FCE9FDEAFEEBFF220458
:10002E0060DED3EB9FEA9EE99DE8C2E78CF0C2F753
:10003E0095F0400CE8CCF8E9CDF9EACEFAEBCFFB1F
:10004E0012028185D0F05804700320D5B3E80470F5
:10005E00075002B2D50202C092D5EC0460F7E4CC90
:10006E00C0E0C398F8603B94186008400DD0E0FBE8
:10007E00020298E4FBFAC9FC8028E830E406E4C9E1
:10008E00FBE4CAFCE830E305E4C9CACBFCE854073C
:10009E006010F8C3E913F9EA13FAEB13FBEC13FC47
:1000AE00D8F130F52FC3E49CFCEF9BFFEE9AFEEDEA
:1000BE0099FDD0E0FBEF4E4D4C701222DB03020295
:1000CE00BDEC2CFCEF33FFEE33FEED33FDED30E7F0
:1000DE00EB020298EF2BFFEE3AFEED39FDD0E0FB7E
:1000EE0050130BBB00030202C0ED13FDEE13FEEF27
:0800FE0013FFEC13FC02029851
:10010600EC4D6011E8497017ED33EC3304600DE4F3
:10011600FCFFFEFD22E933E8330470F80202B61252
:10012600028158046009E4CC248150062850090253
:1001360002C02840030202BDC0E0EB4A7044B98009
:1001460006D0E0FB0202ACEF4E701CBD8008EBFF50
:10015600EAFEE9FD80EBE98DF0A4FEE5F00201EF91
:10016600E9CDF9EAFEEBFFEF89F0A4FCE5F0CE89D4
:10017600F0A42EFFE435F0CD89F0A42DFEE435F091
:100186008067EF4E7005BD80D780C3EF8BF0A4ACBF
:10019600F0EE8BF0A42CFCE435F0F8EF8AF0A42CFA
:1001A600E5F038FCE433CB8DF0A42CFCE5F03BF80D
:1001B600EE8AF0A42CFCE5F038F8E433CF89F0A4FD
:1001C6002CFCE5F038CF3400CE89F0A42FFFE5F003
:1001D6003EFEE433C98DF0A42EFEE5F039CD8AF05B
:1001E600A42FFFE5F03EFEE43DFD33D0E0FB5007D3
:1001F6000BBB000F0202C0EC2CFCEF33FFEE33FE0C
:06020600ED33FD02029839
:10020C0075F020800E75F010800575F0087D007E6D
:10021C00007F003392D530D503120332EC334010FB
:10022C00EF33FFEE33FEED33FDEC33FCD5F0ED2276
:0E023C00E5F0247EA2D513CC92E7CDCEFF22B2
:10024A00EDD2E7CD33EC3392D524814006E4FFFEAC
:10025A00FDFC22FCE4CFCECDCC24E0501174FF800B
:10026A00EDC3CC13CCCD13CDCE13CECF13CF0470A8
:07027A00F030D5DE02033273
:10028100E9D2E7C933E833F892D5EDD2E7CD33ECC3
:0702910033FC5002B2D5223C
:10029800EC30E7100FBF000C0EBE00080DBD0004C7
:1002A8000BEB6014A2D5EB13FCED92E7FD2274FF73
:1002B800FCFDFEFF22E480F8A2D574FF13FC7D80CC
:0302C800E480EFE0
:030000000204B83F
:0C04B800787FE4F6D8FD7581340204FF63
:1002CB00EF8DF0A4A8F0CF8CF0A428CE8DF0A42E47
:0202DB00FE2201
:1002DD00BC000BBE0029EF8DF084FFADF022E4CC05
:1002ED00F875F008EF2FFFEE33FEEC33FCEE9DECCE
:1002FD00984005FCEE9DFE0FD5F0E9E4CEFD22ED14
:10030D00F8F5F0EE8420D21CFEADF075F008EF2F5D
:10031D00FFED33FD4007985006D5F0F222C398FD4E
:05032D000FD5F0EA22EB
:0E033200C3E49FFFE49EFEE49DFDE49CFC22DC
:1004C400020003E493A3F8E493A34003F68001F24B
:1004D40008DFF48029E493A3F85407240CC8C33339
:1004E400C4540F4420C8834004F456800146F6DF08
:1004F400E4800B01020408102040809008A1E47EEF
:10050400019360BCA3FF543F30E509541FFEE493FC
:10051400A360010ECF54C025E060A840B8E493A3C3
:10052400FAE493A3F8E493A3C8C582C8CAC583CAEE
:10053400F0A3C8C582C8CAC583CADFE9DEE780BEA6
:0108CC00002B
:00000001FF
