:0B0AE100120842120A7C12094280FB3E
:040AB7007F327E000C
:0B0ABB00EF1FAC0670011E4C70F6220D
:0208CE00AD0774
:1008D000E4FBEBC39408748094805012C294ED132F
:1008E0009294120AB7D294EDC313FD0B80E47F32C9
:0508F0007E00020ABBBE
:10096600E4FBEBC39408748094805014C294EDC3E6
:1009760013FDD294309403430580120AB70B80E22C
:02098600AF05BB
:01098800224C
:1008F500C200D2947F787E00120ABBC2947F207E0C
:1009050003120ABBD2947F647E00120ABBA29492A2
:0609150000120AB7A20067
:01091B0022B9
:1009C600E4FEEEC3940874809480500FC297EF1330
:0B09D60092A3EFC313FFD2970E80E73F
:0109E10022F3
:100A9100C29300C29700D293001209C6AF05120992
:040AA100C6C2932214
:10075C00E4FDC29300C29700D293001209C6E4FFD5
:10076C00EFC39408748094805011C297EDC313FDAD
:10077C0030A303430580D2970F80E5C29300C29744
:0C078C0000D29700C2A300D2A300AF056A
:01079800223E
:040A1900D2A07F05E3
:100A1D00000000000000000000000000000000AE1B
:060A2D00071FEE70EB2232
:0F0AC600D2A3120A19C2A37F05120A1DC2A022D1
:0C0AD500C2A3120A19D2A37F05020A1D59
:02080D00AD0735
:10080F00E4FCECC39408748094805024C2A07F054C
:10081F00120A1DED30E704D2A38002C2A37F051296
:10082F000A1DD2A0ED25E0FD7F05120A1D0C80D216
:02083F00C2A055
:010841002294
:10091C00E4FCECC39408748094805017120A19ED0F
:10092C0025E0FD30A303430501C2A07F05120A1D7B
:05093C000C80DFAF0597
:010941002293
:100AA500120A19A2A3E433FDC2A07F05120A1DAFE5
:010AB500053B
:010AB600221D
:100A4D00C2A0EF24FF92A37F05120A1D120A19C23C
:080A5D00A0D2A37F05020A1DCF
:10041E00C2AF1208F5D2AF7FCC1208CE7F441208BD
:10042E00CE7F107E27120ABBC2AF1208F5D2AF7F65
:10043E00CC1208CE7FBE1208CE1209668F1F12098B
:10044E00667532008F33E533F532E51FF533E5324D
:10045E0054F87055E532C4F854F0C868F532E533F7
:10046E00C4540F48F533AE32FF7C007D0A1202CB26
:10047E008E328F33E51F540FFCE4120216E4FBFAA2
:10048E007920783F120106C004C005C006C007AC33
:10049E0032AD33E4120211D003D002D001D00012DB
:0904AE00001512024A8E328F3350
:0104B7002222
:100A7C005389F0438901758A18758CFCC28DD2AFED
:050A8C00D28CD2A9226A
:03000B0002065E8C
:10065E00C0E0C0F0C083C082C0D075D000C000C062
:10066E0001C002C003C004C005C006C007758A18C9
:10067E00758CFC120340D007D006D005D004D003F1
:10068E00D002D001D000D0D0D082D083D0F0D0E034
:01069E003229
:1007D400EF603224FB601314601914601F2403704B
:1007E40027E5A0541F4480F5A022E5A0541F44A08F
:1007F400F5A022E5A0541F44C0F5A022E5A0541F93
:0908040044E0F5A02253A01F22DC
:100989008C2C8D2DAE077580FF7F061207D48E80C3
:100999007F017E00120ABB7F071207D4852D8022B2
:1009FE00C0F9A4B0999282F880908883C6A1868EA1
:0B0A0E00BF7FFF0102040810204080A1
:0308A20001251716
:1005B3000521E52164057003752101E52124FE6011
:1005C3001C14602914602E2403703A752605AE327C
:1005D300AF337C007D641202DD8F278028752606E9
:1005E300AE32AF337C007D0A1202DD800F75260622
:1005F3007527118010752607AE32AF337C007D0A54
:100603001202DD8D27E526900A1193FFE527900955
:08061300FE93FD7C0002098941
:10034000E50CC4540F75F00AA4FFAEF0E50C540F91
:100350007C002FF529EC3EF528E50BC4540F75F011
:100360000AA4FFAEF0E50B540F2FF52BEC3EF52A57
:10037000E50AC4540F75F00AA4FFE50A540F2FFFD5
:10038000EC35F0FE0522E52264097003752201E5D3
:100390002214B4080050749003A575F003A4C5831B
:1003A00025F0C583730203BD0203C70203D0020315
:1003B000D50203E00203E90203F10203FFE4F5269C
:1003C000AE28AF29FC802F752601AE28AF298032D8
:1003D0007526028017752603AE2AAF2B7C00801687
:1003E000752604AE2AAF2B80197526057527108057
:1003F0001A7526067C007D0A1202DD8F27800C7597
:1004000026077C007D0A1202DD8D27E526900A1161
:0E04100093FFE5279009FE93FD7C0002098909
:10069F000523E52364037003752301E52324FE601E
:1006AF0010047019752606E52575F00A84F5278064
:1006BF000C752607E52575F00A8485F027E5269049
:1006CF000A1193FFE5279009FE93FD7C000209892B
:100544000524AF24EF3395E0FEEF64054E70037588
:100554002401E52424FE601C14602114602E24036D
:10056400703A753405AE38AF397C007D641202DD13
:100574008F3580287534057535118020753406AEA5
:1005840038AF397C007D0A1202DD8007753407AE6E
:1005940038AF397C007D0A1202DD8D35E534900ACE
:0F05A4001193FFE5359009FE93FD7C0002098954
:1008A500071880828486888A8C07118183858789C9
:0B08B5008B8D070A29011501010122AB
:10084200E4FD7F8E120A91E4F508C3E5089407746B
:10085200809480501574182508F8E6FF740A25085C
:10086200F8E6FD120A91050880E07D807F8E020A7B
:0108720091F4
:10094200E4F509C3E5099407748094805015741185
:100952002509F8E6FF12075C740A2509F8A60705BF
:030962000980E029
:01096500226F
:10071E00EF24FE601414601B1460222403702EC29A
:10072E00B0D2B3D2B2D2B1801CC2B1D2B3D2B2D295
:10073E00B08012C2B2D2B3D2B1D2B08008C2B3D29C
:0E074E00B2D2B1D2B0D2B4D2B5D2C2D2C4228D
:0308C000013A01F9
:080AEC007F3B7E5ADEFEDFFCB9
:010AF40022DF
:1009E200E53A640170030205B3E53A64027003025A
:0C09F2000340E53A6403700312069F22E4
:1009A9007F0112071E20B414120AEC20B40B053A79
:0D09B900E53A64047003753A0130B4FD2284
:10061B007F0312071E20B40B120AEC20B40205252F
:10062B0030B4FD7F0412071E20B40B120AEC20B469
:10063B0002152530B4FDC3E5259463748094804086
:10064B0003752563D3E52594097480948050037555
:03065B002509224C
:0A08C300023000FF012E00012F009B
:1006DF00ED701AEF14FF7E007401A807088005C3A0
:1006EF0033CE33CED8F94231EE4230801EEF14FFB5
:1006FF007E007401A807088005C333CE33CED8F926
:0F070F00F4FFEEF4FEEF5231EE523085318022CE
:100799007F041207D4E52575F00AA4FFD3E5339F3A
:1007A900E53295F04019052EE52E64647018F52E92
:1007B900632FFFE52F6004E4FD80067D018002E4DC
:0B07C900FD7F011206DFE4FF0207D4F1
:100A33007F051207D4E52564147006D284D286801C
:0A0A430004C284C286E4FF0207D457
:10087300120AC67F9012080D120AA57F4112080DB5
:10088300120AA5120AC67F9112080D120AA51209AF
:0E0893001C7536008F37120AA5120AD5AF3732
:0108A1002234
:100A65001208737E007C017DF41202CB1C7DFF12FF
:060A750002DD8E388F390E
:010A7B002258
:10000E000202B6E86480F8E933E83360110460F068
:10001E00ED33EC337009E8FCE9FDEAFEEBFF220458
:10002E0060DED3EB9FEA9EE99DE8C2E78CF0C2F753
:10003E0095F0400CE8CCF8E9CDF9EACEFAEBCFFB1F
:10004E0012028185D0F05804700320D5B3E80470F5
:10005E00075002B2D50202C092D5EC0460F7E4CC90
:10006E00C0E0C398F8603B94186008400DD0E0FBE8
:10007E00020298E4FBFAC9FC8028E830E406E4C9E1
:10008E00FBE4CAFCE830E305E4C9CACBFCE854073C
:10009E006010F8C3E913F9EA13FAEB13FBEC13FC47
:1000AE00D8F130F52FC3E49CFCEF9BFFEE9AFEEDEA
:1000BE0099FDD0E0FBEF4E4D4C701222DB03020295
:1000CE00BDEC2CFCEF33FFEE33FEED33FDED30E7F0
:1000DE00EB020298EF2BFFEE3AFEED39FDD0E0FB7E
:1000EE0050130BBB00030202C0ED13FDEE13FEEF27
:0800FE0013FFEC13FC02029851
:10010600EC4D6011E8497017ED33EC3304600DE4F3
:10011600FCFFFEFD22E933E8330470F80202B61252
:10012600028158046009E4CC248150062850090253
:1001360002C02840030202BDC0E0EB4A7044B98009
:1001460006D0E0FB0202ACEF4E701CBD8008EBFF50
:10015600EAFEE9FD80EBE98DF0A4FEE5F00201EF91
:10016600E9CDF9EAFEEBFFEF89F0A4FCE5F0CE89D4
:10017600F0A42EFFE435F0CD89F0A42DFEE435F091
:100186008067EF4E7005BD80D780C3EF8BF0A4ACBF
:10019600F0EE8BF0A42CFCE435F0F8EF8AF0A42CFA
:1001A600E5F038FCE433CB8DF0A42CFCE5F03BF80D
:1001B600EE8AF0A42CFCE5F038F8E433CF89F0A4FD
:1001C6002CFCE5F038CF3400CE89F0A42FFFE5F003
:1001D6003EFEE433C98DF0A42EFEE5F039CD8AF05B
:1001E600A42FFFE5F03EFEE43DFD33D0E0FB5007D3
:1001F6000BBB000F0202C0EC2CFCEF33FFEE33FE0C
:06020600ED33FD02029839
:10020C0075F020800E75F010800575F0087D007E6D
:10021C00007F003392D530D503120332EC334010FB
:10022C00EF33FFEE33FEED33FDEC33FCD5F0ED2276
:0E023C00E5F0247EA2D513CC92E7CDCEFF22B2
:10024A00EDD2E7CD33EC3392D524814006E4FFFEAC
:10025A00FDFC22FCE4CFCECDCC24E0501174FF800B
:10026A00EDC3CC13CCCD13CDCE13CECF13CF0470A8
:07027A00F030D5DE02033273
:10028100E9D2E7C933E833F892D5EDD2E7CD33ECC3
:0702910033FC5002B2D5223C
:10029800EC30E7100FBF000C0EBE00080DBD0004C7
:1002A8000BEB6014A2D5EB13FCED92E7FD2274FF73
:1002B800FCFDFEFF22E480F8A2D574FF13FC7D80CC
:0302C800E480EFE0
:030000000204B83F
:0C04B800787FE4F6D8FD75813A0204FF5D
:1002CB00EF8DF0A4A8F0CF8CF0A428CE8DF0A42E47
:0202DB00FE2201
:1002DD00BC000BBE0029EF8DF084FFADF022E4CC05
:1002ED00F875F008EF2FFFEE33FEEC33FCEE9DECCE
:1002FD00984005FCEE9DFE0FD5F0E9E4CEFD22ED14
:10030D00F8F5F0EE8420D21CFEADF075F008EF2F5D
:10031D00FFED33FD4007985006D5F0F222C398FD4E
:05032D000FD5F0EA22EB
:0E033200C3E49FFFE49EFEE49DFDE49CFC22DC
:1004C400020AE1E493A3F8E493A34003F68001F263
:1004D40008DFF48029E493A3F85407240CC8C33339
:1004E400C4540F4420C8834004F456800146F6DF08
:1004F400E4800B01020408102040809008A2E47EEE
:10050400019360BCA3FF543F30E509541FFEE493FC
:10051400A360010ECF54C025E060A840B8E493A3C3
:10052400FAE493A3F8E493A3C8C582C8CAC583CAEE
:10053400F0A3C8C582C8CAC583CADFE9DEE780BEA6
:0108CD00002A
:00000001FF
